:100000000C940D050C9435050C9435050C943505B0
:100010000C9435050C9435050C9435050C94350578
:100020000C9435050C9435050C94FA080C948C0747
:100030000C9435050C9435050C9435050C94350558
:100040000C9435050C9414170C9435050C94350557
:100050000C9435050C9435050C9435050C949D09CC
:100060000C9435050C9435050C9435050C94350528
:100070000C9435050C9435050C9435050C94350518
:100080000C94CF160C9435050C9435050C9435055D
:100090000C9435050C9435050C9435050C943505F8
:1000A0000C9435050C9435050C9435055E1C611CCB
:1000B000501C541C5A1C821C821C821C651C691C0E
:1000C0006D1C731C771C821C7D1C12010002EF0248
:1000D00001404123368000010102030112010002A8
:1000E00000000040412336800001010203014172FB
:1000F0006475696E6F204C4C430055534220494F44
:1001000020426F6172640004030904080B000202BC
:100110000201000904000001020200000524001091
:10012000010524010101042402060524060001073B
:1001300005810310004009040100020A00000007C5
:100140000502024000000705830240000008080085
:10015000183C66FF423C0010100000000000000048
:10016000000200038003C003E003F803F003C003B0
:10017000000000000000000000101000000000005F
:100180000000000000060007C003F803F003E001D0
:10019000C0018001000000000000001010000000FD
:1001A0000000000000000000000FF00FF007E00367
:1001B000E001C001C000800000000000001010003D
:1001C00000000000000000002000E003E00FE00F4E
:1001D000E003E000E000200000000000000000104C
:1001E000100000000000000000008001C001C003FA
:1001F000E007E00FF00FF00000000000000000003A
:10020000001010000000000000000001000180014B
:10021000C003E003F003F807C00600000000000080
:1002200000000010100000000000000000030003A8
:10023000C003F003F803E003C003800200000000E5
:10024000000000000010100000000000000000008E
:10025000000FF007E007E003C003C0018001800049
:10026000000000000000001010000000000000006E
:100270000000C003C00FC01FC007C003C001C00002
:10028000400000000000000000101000000000000E
:1002900000000000800180038007C00FC01FC00362
:1002A000E0006000000000000000001010000000EE
:1002B000000000000001000380038007C007E00F7A
:1002C000F00FF0000000000000000000001010001F
:1002D000000000000000000400070007C007F0074E
:1002E000F007C0070004000000000000000000103C
:1002F000100000000000000000000000000FF00FE0
:10030000F007E007C0038003800100000000000048
:10031000001010000000000000000000000060035A
:10032000E01FC00FC007C0038001800080000000F4
:10033000000000101000000000000000000040015C
:10034000C003C007C01FC00FC003C000C000000032
:10035000000000000010100000000000000000017C
:1003600080018003C003C007E007E00FF000000039
:1003700000000000000000080860A090F0000000ED
:1003800000080820529D818181413E101008101CF8
:1003900038264C63C2C183800280028004800480BE
:1003A000028002C0034006200C10300FE008082035
:1003B000D090600000000008083C12F18384834163
:1003C0003E10100FE00430040C04027E0140014096
:1003D0000640384030401840062003300210E40B3D
:1003E0009C0C00080860909070000000000808262F
:1003F0005A81424181413E101008081E3C31C460C0
:1004000002C003400E600820042002200340034085
:1004100002400623041EF8083808086090D0B00097
:1004200000000008081C22418181815A2E1010030F
:10043000F006080C0C100420024003C00130011823
:10044000016001C1834182228436841C8808F8D56A
:10045000F08D14A1C881CFD9F1AF200000000000B9
:10046000003E5B4F5B3E3E6B4F6B3E1C3E7C3E1C3A
:10047000183C7E3C181C577D571C1C5E7F5E1C0080
:10048000183C1800FFE7C3E7FF0018241800FFE737
:10049000DBE7FF30483A060E2629792926407F05FA
:1004A0000507407F05253F5A3CE73C5A7F3E1C1C10
:1004B00008081C1C3E7F14227F22145F5F005F5FD0
:1004C00006097F017F006689956A606060606094BC
:1004D000A2FFA29408047E040810207E20100808C1
:1004E0002A1C08081C2A08081E101010100C1E0CCC
:1004F0001E0C30383E3830060E3E0E06000000005E
:100500000000005F00000007000700147F147F1444
:10051000242A7F2A12231308646236495620500089
:1005200008070300001C2241000041221C002A1C75
:100530007F1C2A08083E0808008070300008080860
:100540000808000060600020100804023E51494580
:100550003E00427F400072494949462141494D339E
:100560001814127F1027454545393C4A4949314105
:10057000211109073649494936464949291E0000D3
:100580001400000040340000000814224114141428
:100590001414004122140802015909063E415D5914
:1005A0004E7C1211127C7F494949363E414141221D
:1005B0007F4141413E7F494949417F090909013E47
:1005C000414151737F0808087F00417F410020406E
:1005D000413F017F081422417F404040407F021C80
:1005E000027F7F0408107F3E4141413E7F09090997
:1005F000063E4151215E7F09192946264949493263
:1006000003017F01033F4040403F1F2040201F3F28
:100610004038403F631408146303047804036159AD
:10062000494D43007F4141410204081020004141EF
:10063000417F04020102044040404040000307089B
:100640000020545478407F28444438384444442897
:10065000384444287F385454541800087E0902183E
:10066000A4A49C787F0804047800447D40002040C6
:10067000403D007F1028440000417F40007C04780A
:1006800004787C080404783844444438FC18242452
:100690001818242418FC7C080404084854545424D2
:1006A00004043F44243C4040207C1C2040201C3C4F
:1006B0004030403C44281028444C9090907C446446
:1006C000544C4400083641000000770000004136D9
:1006D000080002010204023C2623263C1EA1A1615F
:1006E000123A4040207A3854545559215555794191
:1006F0002154547841215554784020545579400C68
:100700001E52721239555555593954545459395548
:100710005454580000457C410002457D420001458B
:100720007C40F0292429F0F0282528F07C545545F8
:10073000002054547C547C0A097F4932494949328B
:100740003248484832324A4848303A4141217A3AA0
:1007500042402078009DA0A07D39444444393D406A
:1007600040403D3C24FF2424487E4943662B2FFC17
:100770002F2BFF0929F620C0887E090320545479C5
:10078000410000447D413048484A32384040227A96
:10079000007A0A0A727D0D19317D2629292F282613
:1007A0002929292630484D4020380808080808081B
:1007B0000808382F10C8ACBA2F102834FA00007B74
:1007C000000008142A142222142A1408950022007A
:1007D00095AA005500AAAA55AA55AA000000FF0034
:1007E000101010FF00141414FF001010FF00FF1071
:1007F00010F010F0141414FC001414F700FF0000A3
:10080000FF00FF1414F404FC141417101F10101F21
:10081000101F1414141F00101010F0000000001F0F
:10082000101010101F10101010F010000000FF101A
:100830001010101010101010FF10000000FF140016
:1008400000FF00FF00001F10170000FC04F4141448
:100850001710171414F404F40000FF00F714141414
:1008600014141414F700F7141414171410101F1094
:100870001F141414F4141010F010F000001F101FB7
:100880000000001F14000000FC140000F010F01025
:1008900010FF10FF141414FF141010101F0000009C
:1008A00000F010FFFFFFFFFFF0F0F0F0F0FFFFFFA0
:1008B0000000000000FFFF0F0F0F0F0F38444438F7
:1008C000447C2A2A3E147E02020606027E027E0232
:1008D00063554941633844443C04407E201E200651
:1008E000027E020299A5E7A5991C2A492A1C4C728E
:1008F00001724C304A4D4D303048784830BC625A15
:10090000463D3E494949007E0101017E2A2A2A2AA4
:100910002A44445F444440514A444040444A514080
:100920000000FF0103E080FF000008086B6B083641
:1009300012362436060F090F0600001818000000B2
:100940001010003040FF0101001F01011E00191DA1
:100950001712003C3C3C3C00000000000804020070
:10096000FB02FB03FC04FF0400040203040204FF77
:1009700004FD04FC04FB01FBFFFBFEFCFCFDFB0093
:10098000F803F906FA07FD08000703060603070047
:1009900008FD07FA06F903F800F9FDFAFAFDF90077
:1009A00000000200090F0000030401000C00000019
:1009B000000000000000000000000000000004082B
:1009C0000201104080401020408040800802040155
:1009D00080402010020110801020404020040404B8
:1009E00004040304050202020204030202020206D6
:1009F00006060606060404020202040400000000C3
:100A0000250028002B002E003100000000002400EB
:100A100027002A002D0030008D0B11241FBECFEFC0
:100A2000DAE0DEBFCDBF12E0A0E0B1E0E0E8FEE337
:100A300002C005900D92A830B107D9F728E0A8E0D0
:100A4000B2E001C01D92A632B207E1F71AE0CAE196
:100A5000DAE004C02297FE010E940A1FC831D107C4
:100A6000C9F70E9438050C943E1F0C9400000895AD
:100A70000E94500A0E94370588E092E00E947D099A
:100A80000E949009C0E0D0E00E9494092097E1F311
:100A90000E940000F9CF615030F02091F100FC017C
:100AA00020830196F8CF289884E680931102089558
:100AB00040910C0250910D0220910A0230910B02DC
:100AC00042175307B4F49091E8009570E1F39091C8
:100AD000E80092FD19C08093F10080910C02909182
:100AE0000D0201968F739927892B19F48EEF80934D
:100AF000E80080910C0290910D02019690930D02F6
:100B000080930C0281E0089580E00895CF92DF92F7
:100B1000EF92FF920F931F93CF93DF931F92CDB766
:100B2000DEB7082F162FF42E862F880F8E5F99833D
:100B30000E94580583E00E945805E02EC02E99813E
:100B4000D92E8C2D8E19811798F4F601F7FE02C06C
:100B5000849101C080810E945805082F80E00E9486
:100B600058058023FFEFCF1ADF0A8111EACF01C0B9
:100B700081E00F90DF91CF911F910F91FF90EF9047
:100B8000DF90CF9008958091D70081608093D70047
:100B900080EA8093D80089B5806189BD89B582607B
:100BA00089BD09B400FEFDCF61E070E080E090E017
:100BB0000E94160A8091D8008F7C80618093D800B3
:100BC0008091E000807F8093E0000895CF93DF93D1
:100BD0001F92CDB7DEB71982CE0101960E94030B9A
:100BE0000E94310CBE016F5F7F4F0E94AA0B89816A
:100BF0000F90DF91CF9108952FB7FC012083F894D7
:100C000067706093E9000895CF93DF931F92CDB78B
:100C1000DEB7682FCE0101960E94FC058091F2009C
:100C200099819FBF0F90DF91CF910895FF920F930D
:100C30001F93CF93DF9300D0CDB7DEB7F62E8A0196
:100C400090911002992311F057FF03C08FEF9FEF8F
:100C50002BC0682FCE0101967A830E94FC058091FB
:100C6000F20090E0A8017A81801791070CF4AC01A2
:100C7000EF2DF72FF40E84E6FE1639F028988093B6
:100C800011029091F1009193F7CF4115510521F098
:100C90008091F200882321F089818FBFCA0104C0AE
:100CA0008BE68093E800F8CF0F900F90DF91CF9103
:100CB0001F910F91FF900895CF93DF931F92CDB7AF
:100CC000DEB741E050E0BE016F5F7F4F0E94160625
:100CD000019719F4898190E002C08FEF9FEF0F9088
:100CE000DF91CF910895CF93DF931F92CDB7DEB7F9
:100CF000682FCE0101960E94FC059091E800892F93
:100D0000807295FF04C09091F20080E4891B998164
:100D10009FBF0F90DF91CF9108956F927F928F9236
:100D20009F92AF92BF92CF92DF92EF92FF920F937A
:100D30001F93CF93DF931F92CDB7DEB7782E7B0141
:100D4000C42EB52E80911002882369F0042F152F30
:100D50008AEFD82E872D8072982E9AE3A92E872DA0
:100D60008074882E11C08FEF9FEF57C0872D0E948F
:100D70007306682E81110CC0DA94A9F361E070E06B
:100D800080E090E00E94160A0115110579F73BC03A
:100D9000282F30E0021713070CF4602E672DCE01C8
:100DA00001960E94FC058091E80085FF29C0262D50
:100DB00030E0021B130B992039F06A948FEF68160C
:100DC000B1F01092F100F9CFF701862D77FE07C040
:100DD000815058F094919093F1003196F9CF815061
:100DE00020F091919093F100FACFE20EF31E8091E2
:100DF000E80085FF0FC00115110511F481100AC02C
:100E000089818FBFC1CF5D9884E6809312028C2DBB
:100E10009B2D03C0A092E800F3CF0F90DF91CF91FC
:100E20001F910F91FF90EF90DF90CF90BF90AF9008
:100E30009F908F907F906F9008951092E90010928C
:100E40000D0210920C0290930B0280930A020895F7
:100E5000CF92DF92FF920F931F93CF93DF9300D037
:100E6000CDB7DEB7F82E8A016B0101151105B1F07F
:100E7000F601F7FE02C0849101C0808149835A8344
:100E80000E94580501501109FFEFCF1ADF0A49816E
:100E90005A818111EACF8FEF9FEF01C0CA010F90F5
:100EA0000F90DF91CF911F910F91FF90DF90CF9026
:100EB0000895BF92CF92DF92EF92FF920F931F930C
:100EC000CF93DF936C018B01EB013BEFB32E2097A7
:100ED000C1F07E01C134D1051CF020E4E22EF12CDA
:100EE0008091E80082FFFCCFC8018C1B9D0B6E2D0A
:100EF0008C0D9D1D0E944B05B092E800CE19DF09B4
:100F0000E6CFC801DF91CF911F910F91FF90EF9035
:100F1000DF90CF90BF9008951F920F920FB60F925F
:100F20001124DF92EF92FF920F931F932F933F9321
:100F30004F935F936F937F938F939F93AF93BF93E1
:100F4000EF93FF93CF93DF93CDB7DEB76C97DEBF00
:100F5000CDBF1092E9008091E80083FF23C168E0D3
:100F6000CE0145960E944B0582EF8093E8003D89B3
:100F700037FF05C08091E80080FFFCCF03C08EEFF3
:100F80008093E800832F807609F0F0C02E894F8986
:100F9000D88C21110CC0303829F480910F02809335
:100FA000F10002C01092F1001092F100F4C0842F01
:100FB00090E09D29213049F43111EDC0019709F0ED
:100FC000EAC080910F028D7F0AC0233059F431119D
:100FD000E2C0019709F0DFC080910F028260809328
:100FE0000F02D9C0253041F48091E80080FFFCCF8A
:100FF00040684093E300CFC0263009F08DC0EB8CF1
:10100000FC8C22E0D2122CC080E090E00E941D07F0
:101010000E94E60599E08E010F5F1F4FF801292F0E
:1010200011922A95E9F79983DA8291E09E8390EAFA
:1010300098879AEF998720910C0230910D02275FD3
:101040003F4F3C832B838D83C7010E941D0749E0DE
:1010500050E0B80180E00E9428070E94E6059BC08E
:10106000C7010E941D070E94310CBE016B5E7F4FBD
:101070000E94D30B009719F00CF08DC090C081E056
:10108000D8120EC08B8D9C8D089719F481E0809347
:1010900009028091090281112FC06CED70E031C00E
:1010A000E3E0DE127CC08F89882349F1823029F485
:1010B00040E86CE08AEF90E01CC0813029F440E801
:1010C0006BE08EEE90E015C0833009F068C00E949E
:1010D000310C8E010F5F1F4FB8010E94F20BF80117
:1010E00001900020E9F73197E01BF10B40E06E2FF3
:1010F000C8010E9486054DC06AEC70E002C067E03E
:1011000071E06115710509F44AC0FB01449150E09A
:1011100080E80E9428073FC0273009F440C02830EB
:1011200021F481E08093F10036C02930A1F53370BD
:10113000B1F5E1E0F1E081E021E036E3908199232F
:1011400061F08093E9002093EB0091919093EC0083
:101150003093ED008F5F873089F78EE78093EA0048
:101160001092EA008F898093100215C08B8D9C8DA0
:101170000E941D07898D811105C0CE0145960E94F0
:101180000E0B07C00E94310CBE016B5E7F4F0E94A8
:10119000110C882321F08EEF8093E80003C081E2D8
:1011A0008093EB006C960FB6F894DEBF0FBECDBFF8
:1011B000DF91CF91FF91EF91BF91AF919F918F916F
:1011C0007F916F915F914F913F912F911F910F915F
:1011D000FF90EF90DF900F900FBE0F901F9018952B
:1011E0008093E9008091F200882319F08AE38093CC
:1011F000E80008951F920F920FB60F9211242F93BB
:101200003F934F935F936F937F938F939F93AF938E
:10121000BF93CF93EF93FF93C091E1008091E100E2
:10122000837F8093E1008093E100C3FF0FC01092A1
:10123000E90081E08093EB001092EC0082E3809360
:10124000ED001092100288E08093F000C2FF19C0F8
:1012500083E00E94F00880911202882339F0809187
:101260001202815080931202882389F18091110229
:10127000882339F0809111028150809311028823D4
:1012800041F1C4FF10C08091E2008E7E81608093A6
:10129000E2008091E1008F7E8093E10080910E0258
:1012A0008E7E806111C0C0FF16C08091E2008E7EEC
:1012B00080618093E2008091E1008E7E8093E10066
:1012C00080910E028E7E816080930E0204C05D9A32
:1012D000CDCF289AD6CFFF91EF91CF91BF91AF910B
:1012E0009F918F917F916F915F914F913F912F913E
:1012F0000F900FBE0F901F90189510921002109231
:101300000F0210920E020E94C305E1EEF0E0808110
:101310008E7E80838DE08093E200559A209A089516
:101320000E94450C0C94880C0E94730C882321F0B9
:101330000E94750D0C94840C08951F920F920FB6A5
:101340000F9211242F933F938F939F93AF93BF934B
:101350008091140290911502A0911602B09117028B
:101360003091130223E0230F2D3720F40196A11DA5
:10137000B11D05C026E8230F0296A11DB11D2093C3
:1013800013028093140290931502A0931602B09357
:1013900017028091180290911902A0911A02B0913F
:1013A0001B020196A11DB11D809318029093190292
:1013B000A0931A02B0931B02BF91AF919F918F919E
:1013C0003F912F910F900FBE0F901F9018952FB740
:1013D000F894609114027091150280911602909118
:1013E00017022FBF08953FB7F8948091180290918B
:1013F0001902A0911A02B0911B0226B5A89B05C044
:101400002F3F19F00196A11DB11D3FBF6627782F10
:10141000892F9A2F620F711D811D911D42E0660F69
:10142000771F881F991F4A95D1F708958F929F9231
:10143000AF92BF92CF92DF92EF92FF926B017C014D
:101440000E94F3094B015C01C114D104E104F104D1
:10145000F1F00E94DA0F0E94F309681979098A09EC
:101460009B09683E73408105910570F321E0C21A23
:10147000D108E108F10888EE880E83E0981EA11CCF
:10148000B11CC114D104E104F10429F7DDCFFF90B0
:10149000EF90DF90CF90BF90AF909F908F90089586
:1014A000789484B5826084BD84B5816084BD85B53F
:1014B000826085BD85B5816085BDEEE6F0E0808106
:1014C00081608083E1E8F0E0108280818260808327
:1014D000808181608083E0E8F0E0808181608083AA
:1014E000E1E9F0E080818260808380818160808397
:1014F000E0E9F0E0808181608083E1ECF0E08081D0
:101500008460808380818260808380818160808329
:10151000E3ECF0E0808181608083E0ECF0E08081AA
:1015200082608083E2ECF0E0808181608083EAE782
:10153000F0E080818460808380818260808380810C
:10154000816080838081806880830895CF93DF935A
:101550001F92CDB7DEB76983DC01ED91FC9102806B
:10156000F381E02D41E050E0BE016F5F7F4F0995B0
:101570000F90DF91CF910895CF93DF93EC018C858D
:101580009D8597FF05C082E00E945C069D878C8741
:101590008C859D85DF91CF91089583E00C94F008B0
:1015A000FC018485958597FD06C082E00E940406B3
:1015B00090E00196089582E00E94040690E008956C
:1015C000FC018485958597FD05C02FEF3FEF35879A
:1015D0002487089582E00C945C06CF93DF93EC019E
:1015E00080911201882331F083E00E948D06181645
:1015F000190634F081E090E09B838A8380E090E0DC
:10160000DF91CF910895FC0120812E5F208342E479
:1016100050E06BE071E080E80C942807FC01218128
:101620008081813A59F4213209F05CC047E050E0F2
:101630006BE071E080E00E94280767C0813209F00A
:1016400051C0233289F4838190E0982F882732811A
:10165000832BA0E0B0E08093070190930801A09352
:101660000901B0930A010FC0203239F467E070E03D
:101670008BE091E00E9459070AC0223221F4828156
:101680008093120104C02D7F203209F03EC080916A
:101690000B0190910C01A0910D01B0910E01803BC6
:1016A0009440A105B10501F58091120180FD1CC097
:1016B00080910008909101089093FF0A8093FE0AA0
:1016C00087E797E790930108809300082BE088E173
:1016D00090E00FB6F894A895809360000FBE209319
:1016E000600013C080E0089588E10FB6F8948093FD
:1016F0006000109260000FBEA8958091FE0A909144
:10170000FF0A909301088093000881E008952FEF6D
:101710003FEFFC0135872487089510921F02109235
:101720001E0288EE93E0A0E0B0E080932002909348
:101730002102A0932202B09323028FE491E09093C0
:101740001D0280931C028FEF9FEF909329028093DC
:1017500028020895EF92FF920F931F93CF93DF9388
:101760007B01FC01C281D38100E010E0209781F071
:10177000E881F9810280F381E02DB701CE0109955E
:1017800097FD08C0080F191F0884D985C02DEECF1A
:10179000C80102C08FEF9FEFDF91CF911F910F9192
:1017A000FF90EF9008950F931F93CF93DF938B01DA
:1017B000FC01C281D381209771F0E881F981048016
:1017C000F581E02DB801CE010995009731F4088428
:1017D000D985C02DF0CF80E090E0DF91CF911F91AF
:1017E0000F9108950F931F93CF93DF938B01FC010B
:1017F000C281D381209771F0E881F9810680F78159
:10180000E02DB801CE010995080F111D0884D98576
:10181000C02DF0CFF8011082DF91CF911F910F9171
:1018200008950F931F93CF93DF938B01FC01C28127
:10183000D381209771F0E881F9810190F081E02D4A
:10184000B801CE010995811106C00884D985C02D43
:10185000F0CF80E001C081E0DF91CF911F910F9127
:1018600008958091700281110DC082E080936C0216
:1018700084E080936D0210926F0210926E0281E0FC
:10188000809370028CE692E00895E4E6F0E08081B7
:101890008064808380818160808380818068808390
:1018A000808182608083E5E6F0E0808181608083D2
:1018B0000E9434130E9441120E94E0150E94B91147
:1018C0000E94BF120E942C130E94CD140C94B111DF
:1018D00083B7817F83BF83B7816083BF889583B7D8
:1018E0008E7F83BF0895CF93DF931F92CDB7DEB76E
:1018F0000E945812882321F089830E94DE12898178
:101900000F90DF91CF9108950E94B6130C94341478
:1019100042E050E060E088E792E00C94DB0F0E9428
:101920007C190E94880E0E94A60D0E9459170E94E1
:10193000EA1A0E94A10E0E94991981E08093780210
:10194000109279020895CF930E94F51B0E949B1A72
:101950000E942C0E0E94EF1B0E94631A0E946C19B9
:10196000C82F0E9469191F92CF9390E001969F9310
:101970008F938BE591E09F938F9387E08F931F92D6
:101980000E94E9138091790291E0980F9093790277
:101990002DB73EB7285F3F4F0FB6F8943EBF0FBE3E
:1019A0002DBF883C58F00E9463190E9454180E9471
:1019B000940F82E08093780210927902CF9108957B
:1019C0000E942C0E0E947F170E94F51B0E944A0F56
:1019D0000E949B1A0E9460170E94EF1B0E94A80E93
:1019E0000E94631A0E94431C81110FC00E94401C78
:1019F000882311F083E010C00E946E19882389F0BB
:101A00000E94D30F811103C0089584E005C00E9495
:101A100075198111FACF81E08093780210927902D2
:101A2000089508950E942C0E0E947F170E944A0F6D
:101A30000E949B1A0E9460170E94A80E0E94631ABF
:101A40008091790291E0980F909379028D3338F06C
:101A50000E940B1C82E08093780210927902089514
:101A60000E942C0E0E947F170E944A0F0E949B1A10
:101A70000E9460170E94A80E0E94631A0E947519A6
:101A8000882321F00E946E19811103C080E791E044
:101A900002C08AE791E09F938F9386E08F931F9215
:101AA0000E94E9130F900F900F900F900E949C0ED0
:101AB0009F938F9388E691E09F938F9387E08F9316
:101AC0001F920E94E9130E9426130F900F900F900F
:101AD0000F900F900F9086FF07C00E94430E109248
:101AE00078021092790208950895809178028230E8
:101AF00079F030F4882351F0813071F40C94A30C08
:101B0000833041F0843041F40C94300D0C948F0CF0
:101B10000C94E00C0C94120D1F9281E28F9385E8D7
:101B200091E09F938F938EE891E09F938F9387E945
:101B300091E09F938F930E946B118DB79EB708968B
:101B40000FB6F8949EBF0FBE8DBF08950895CF9332
:101B5000DF9300D01F92CDB7DEB74031C8F01F929F
:101B600091E39F9321EA31E03F932F9329EA31E0FB
:101B70003F932F934B836A8389830E946B110F904D
:101B80000F900F900F900F900F9089816A814B8179
:101B9000E42FF0E0EE0FFF1FE55DFE4F4081518125
:101BA0000F900F900F90DF91CF910C943F14CF9333
:101BB000DF9300D000D0CDB7DEB7443010F423302F
:101BC000D8F01F9298E39F93A1EAB1E0BF93AF933F
:101BD000A9EBB1E0BF93AF932C834B836A838983D6
:101BE0000E946B110F900F900F900F900F900F901D
:101BF00089816A814B812C81E22FF0E093E0499F3B
:101C0000E00DF11D1124EE0FFF1FED5EFE4F408130
:101C100051810F900F900F900F90DF91CF910C9406
:101C20003F144DE451E00C943F140C94181480E1DF
:101C300090E00E94C0110E94E111611571058105BB
:101C4000910511F00E94D51480E190E00E94C0112E
:101C50000E94DB140C942512ECE7F2E081818F9353
:101C600080818F9385ED91E09F938F9387E08F9391
:101C700082E18F930E94E9130F900F900F900F90C5
:101C80000F900F90089580917C0290917D02209199
:101C90007A0230917B0282179307D0F090937B02F7
:101CA00080937A0280E090E00E94C01181E40E945B
:101CB000061283E50E94061284E50E94061285E45E
:101CC0000E94061280917A0290917B020C94161267
:101CD000089510927B0210927A0280E090E00E94B8
:101CE000C0110E94C511813491F40E94C511833541
:101CF00071F40E94C511843551F40E94C5118534D8
:101D000031F40E94D41190937B0280937A0208955B
:101D100044E050E060E08AE792E00E94DB0F0E941E
:101D2000170E0C94690EECE7F2E020813181280F48
:101D3000311D31832083089580917A0290917B0236
:101D4000089549E050E060E08EE792E00C94DB0FEC
:101D5000CF92DF92EF92FF92CF93DF9380917E023A
:101D6000813079F1E8F0823009F48DC01F9285E36B
:101D70008F9389ED91E09F938F9381EE91E09F93F4
:101D80008F9387E991E09F938F930E946B118DB79A
:101D90009EB708960FB6F8949EBF0FBE8DBF73C056
:101DA00080917F02909180029C01215031093093F3
:101DB000800220937F02181619060CF464C081E09B
:101DC00060C00E94E71A811145C062E370E080E0C4
:101DD00090E00E94B7156B017C0184E1C80ED11C14
:101DE000E11CF11C0E94DB15882319F081E090E0D2
:101DF00002C08FEF9FEF8C9DE0018D9DD00D9C9DCB
:101E0000D00D112462E370E080E090E00E94B715ED
:101E10006B017C0194E1C90ED11CE11CF11C0E94F4
:101E2000DB15882319F081E090E002C08FEF9FEF6F
:101E30008C9D90018D9D300D9C9D300D11246091E5
:101E4000830270918402AE0180918102909182029E
:101E50000E94CD1A80918102909182022091850288
:101E600030918602820F931F9093820280938102A9
:101E7000880F892F881F990B04968938910518F0CF
:101E800082E080937E02DF91CF91FF90EF90DF9010
:101E9000CF90089580917E028130A1F460918302F9
:101EA00070918402660F672F661F770B64508091D4
:101EB000810290918202880F892F881F990B84508C
:101EC0000C94110E089520917E02213059F5409115
:101ED0008102509182022091830230918402220F6C
:101EE000232F221F330BF90133976E177F07D4F08E
:101EF0002D5F3F4F26173707ACF09A01220F232F93
:101F0000221F330BA901435051098417950754F040
:101F10002D5F3F4F281739072CF082E080937E0217
:101F200081E0089580E00895CF930E94DB15C82FCB
:101F300010927E026CE370E080E090E00E94B715A2
:101F4000645C7F4F7093800260937F02CC2319F012
:101F500020E03EEF02C020E032E430938202209382
:101F60008102CC2319F088E290E002C088ED9FEF57
:101F7000909386028093850268E370E080E090E0B1
:101F80000E94B7156C5F7F4F8F4F9F4FF7E0660F32
:101F9000771F881F991FFA95D1F770938402609379
:101FA0008302CF91089581E090917E02923009F0F2
:101FB00080E0089508954115510549F0141615065D
:101FC00034F4FC016083415051090196F7CF089524
:101FD000CF93DF939B01C52F0E94B31EFB01D82F27
:101FE0001E161F063CF45C2FB901CF010E94E80FBA
:101FF000482FC92FD05DE42FFC2FD193CF01DF9163
:10200000CF910895AF92BF92CF92DF92EF92FF925D
:102010000F931F93CF93DF935B01FA01102FFE2CD8
:102020000E94B31EEB016C011C161D061CF0223031
:10203000310554F021503109E12C012FAF01B501D8
:10204000CE010E940210FC01CF010196C114D104FF
:1020500021F4CD2B11F4FF2021F020E32C0D20835F
:1020600001C01083DF91CF911F910F91FF90EF90EE
:10207000DF90CF90BF90AF9008958F929F92AF92D4
:10208000BF92CF92EF920F931F93CF93DF934B01A9
:102090005C01C02F1E2DDC2D80E188169104A10467
:1020A000B10418F4223031058CF021503109CD2EC5
:1020B000E12C0C2FC501B401E4E096958795779546
:1020C0006795EA95D1F70E943D10AC0194012F70FD
:1020D0003327CA0101962115310531F489288A2850
:1020E0008B2811F4112351F02A30310510F0DA5009
:1020F00001C0D0E3D20FFA01D08302C0FA01C0833D
:10210000DF91CF911F910F91EF90CF90BF90AF9043
:102110009F908F900895CF92DF92EF92FF92CF938E
:102120006B017C01C22F80E1C816D104E104F104E7
:1021300060F0C701B601F4E09695879577956795AD
:10214000FA95D1F70E948B10AC01C6018F709927C8
:102150008A30910518F026EF2C0F01C020E3280FDC
:10216000FA012193CF01CF91FF90EF90DF90CF90B4
:102170000895FB01DC012D91CD01222311F0219363
:10218000F9CFCF0108958F929F92AF92BF92CF92D5
:10219000EF92FF920F931F93CF93DF93FC01EB011C
:1021A000DA0110E2812C912C0DE2F02E8881882337
:1021B00009F484C0853239F05E012FEFA21AB20A09
:1021C0008083ED0179C089815E01803321F032E0A6
:1021D000A30EB11C05C083E0A80EB11C8A8110E3D8
:1021E00090ED980F9A3078F4882E992487FC90947B
:1021F00090E3891A9108E501888195012F5F3F4F8F
:10220000590121E001C020E08C3681F134F483369D
:1022100009F44EC0843669F051C08337F1F1883734
:1022200009F04CC0ED0122966D917C9180E090E028
:1022300023C0ED0122968D919C9197FF05C0919549
:1022400081959109F0823196222351F0EE24E39496
:10225000012F9401AF016AE070E00E94021024C0D7
:10226000AF016AE070E00E94E80F1EC0ED01249605
:102270006D917D918D919C91222351F0A1E6CA2E02
:10228000EE24E394012F9401AF010E943D100CC095
:1022900021E6AF010E948B1007C0ED012296BF011D
:1022A0008D919C910E94B910FC01DE01E5017ECF69
:1022B000ED0122968C9180833196F7CF1082DF91C9
:1022C000CF911F910F91FF90EF90CF90BF90AF9063
:1022D0009F908F900895CF93DF93CDB7DEB7A897E7
:1022E0000FB6F894DEBF0FBECDBFFE01BD96619163
:1022F0007191AF01CE0101960E94C3108E010F5F54
:102300001F4FF02EF094F80141918F01442331F0DA
:1023100060E08F2D800F0E94C413F5CF0E94B6138A
:10232000FFCF680F791F77FF03C0CB01905C089542
:10233000611580E478071CF0CB0190540895CB011F
:102340000895680F791F77FF03C0CB01905E089551
:10235000611580E278071CF0CB0190520895CB0103
:10236000089540E855E260E070E08CE192E00C9462
:10237000870B42E050E060E087E892E00C94DB0FCE
:1023800090938802809387020895F999FECF8091F7
:102390008702909188029C012F5F3F4F3093880203
:1023A000209387020C94281FCF930E94C511C82F39
:1023B0000E94C5112C2F30E0A901582BCA01CF91E2
:1023C0000895CF92DF92EF92FF92CF93DF930E9416
:1023D000C511C82F0E94C511D82F0E94C511C82E43
:1023E000D12CE12CF12C7601DD24CC24DD2ACC2A61
:1023F0000E94C511A7019601582BCA01B901DF91AE
:10240000CF91FF90EF90DF90CF900895682FF999CA
:10241000FECF80918702909188029C012F5F3F4FF1
:1024200030938802209387020C94301FCF93DF9360
:102430001F92CDB7DEB799830E9406129981892F2A
:102440000F90DF91CF910C9406121F93CF93DF93DF
:1024500000D0CDB7DEB7182F862F79839A830E94DC
:1024600006127981872F0E940612812F0E94061280
:102470009A81892F0F900F90DF91CF911F910C942B
:10248000061241E150E060E089E892E00E94DB0F33
:102490008EE18093890281E2809395020895682FEE
:1024A000809199020E94931E81E0911180E008952D
:1024B0000F931F930E94E70920919602222391F027
:1024C00020919002362F321B3093940220918A0281
:1024D00030918B022F5F3F4F30938B0220938A0203
:1024E0001092960200918C0210918D0220918E0222
:1024F00030918F02601771078207930730F4061B33
:102500000230C8F10E94680C36C0409195020091DB
:102510009002109191022091920230919302040F47
:10252000111D211D311D061717072807390748F00F
:1025300000938C0210938D0220938E0230938F02B1
:1025400008C060938C0270938D0280938E029093EA
:102550008F02609390027093910280939202909305
:10256000930281E080939602809199028F5F80931D
:10257000990281E001C080E01F910F91089545E02C
:1025800050E060E08AE992E00E94DB0F62E089E0BF
:102590000E94831C62E085E00E94831C62E088E068
:1025A0000E94831C62E08AE00E94831C62E082E158
:1025B0000E94831C62E083E10C94831C43B186B1CA
:1025C0002FB190E0809590958074992734E095958F
:1025D00087953A95E1F730E020953095207C3327B8
:1025E00056E0359527955A95E1F7822B932B409528
:1025F0004077842B40919A0220919B022827342F08
:102600003095232320939B02382F30953423309329
:102610009C0280939A02277721F420919E02211137
:1026200006C080939D0226E020939E0202C0109275
:102630009D02892B41F080919E02882331F08150C8
:1026400080939E02089510929E02089580919B02AD
:10265000089580919D02089508958EBD00000DB4E7
:1026600007FEFDCF8EB50895CF92DF92EF92FF92D5
:102670000F931F93CF93DF9340E054E060E08FE926
:1026800092E00E94DB0F0E94F21C8CB58C7F8CBD07
:102690008DB581608DBD61E084E00E94831C61E0A6
:1026A00086E00E94831C61E08CE00E94831C61E054
:1026B0008CE00E94BC1C61E070E080E090E00E9431
:1026C000160A60E08CE00E94BC1C6AE070E080E0CA
:1026D00090E00E94160A61E08CE00E94BC1CE3EED0
:1026E000F9E0E491F0E0EE0FFF1FE450F64FC591E2
:1026F000D491E1EEF9E0E491F0E0EE0FFF1FE45039
:10270000F64F05911491E4ECF9E0D490E2ECF9E095
:10271000C49088818D298883F80180819C2D9095B3
:10272000892380838881D0948D2188832FE4E22EB1
:1027300024E0F22EF70184910E942D13FFEFEF1A8F
:10274000FF0A8CE5E81684E0F806A1F7F80180811D
:102750008C29808388818D218883DF91CF911F917F
:102760000F91FF90EF90DF90CF900895CF93DF937C
:10277000CFE9D2E089910E942D1386E0CF39D807A6
:10278000C9F7DF91CF910895853110F5683000F5D4
:1027900090E8699FB001112495E04902A00111243D
:1027A00020E030E0445A5B4F96E0899F600D711D38
:1027B000112461567D4FFA01E20FF31FE491DB0112
:1027C000A20FB31FEC932F5F3F4F2530310599F7D0
:1027D00008951F93CF93DF93CDB7DEB7A8970FB6B9
:1027E000F894DEBF0FBECDBFAE014E5C5F4F68A94F
:1027F00079A9CE0101960E94C31010E08EA5810F29
:10280000E1E0F0E0EC0FFD1FE10FF11D40814423FA
:1028100029F06FA50E94C4131F5FF0CFA8960FB6D2
:10282000F894DEBF0FBECDBFDF91CF911F91089509
:1028300087FD19C06034B8F4E62FE695E695E69575
:1028400090E8E99FF0011124E80FF11DE156FD4FDA
:10285000677081E090E0062E01C0880F0A94EAF7C5
:102860009081982B908308958FE992E0FC010024D9
:1028700011921192119211920394D1F708952F920F
:102880003F924F925F926F927F928F929F92AF9200
:10289000BF92CF92DF92EF92FF920F931F93CF934D
:1028A000DF93FA01A490EA01229631965490EA2C23
:1028B000E694E694E694F12CA0E0B0E0772767FD7B
:1028C000709599249394992787FD9095A51508F004
:1028D00051C0AD01460F571F40345105B8F49A015D
:1028E00013E0359527951A95E1F73695322F222773
:1028F0003795279547705527892C01C0880C4A9534
:10290000EAF7FE01B12C280F391F12C0CE0DDF1DD2
:102910002FC08601040F151F00381105F0F07694C2
:102920004F5F5F4F48305105A1F7D8E0BD0E31969B
:10293000EF01BA14E8F4649040E050E0C0E87C2E67
:10294000CB2DD0E06E01C80ED91E1E01220E331E03
:10295000E101C156DD4F1E01DCCF172D1621F9F222
:102960008101040F151FE801488048284882D7CF0D
:102970001196ACCFDF91CF911F910F91FF90EF9007
:10298000DF90CF90BF90AF909F908F907F906F908F
:102990005F904F903F902F9008954BE952E16CE784
:1029A00076EF8FE996E00C94FF1DAB01BC018FE937
:1029B00096E00C94FF1D2F923F924F925F926F9280
:1029C0007F928F929F92AF92BF92CF92DF92EF92BF
:1029D000FF920F931F93CF93DF93CBEAD6E048800B
:1029E00059806A807B80A3EAB6E0CD90DD90ED90BF
:1029F000FC9087EA282E86E0382EF10180809180B5
:102A0000A280B380D501C4018C259D25AE25BF25AC
:102A10004FE956E0FA0100811181228133813F772D
:102A200080279127A227B3278C019D01000F111F3A
:102A3000221F331F082719272A273B27D301C2014A
:102A4000B695A7959795879584259525A625B725AD
:102A500080279127A227B327C082D182E282F38206
:102A600088839983AA83BB832C013D01F1E04F2227
:102A70005524662477247094609450944094411CAB
:102A8000511C611C711C4091AF065091B0066091C1
:102A9000B1067091B206442155216621772148255F
:102AA00059256A257B25E3EAF6E04083518362835A
:102AB0007383AC01BD01EAE0440F551F661F771F09
:102AC000EA95D1F740275127622773270091B30673
:102AD0001091B4062091B5063091B6060421152157
:102AE000262137214027512762277327F101408390
:102AF000518362837383052F162F272F33270C0DE5
:102B00001D1D2E1D3F1DBC01CD0160277127822791
:102B100093270170112722273327CC24DD24760147
:102B2000C01AD10AE20AF30A0091B7061091B8065A
:102B30002091B9063091BA06C022D122E222F322B6
:102B40006C257D258E259F25DF91CF911F910F91BB
:102B5000FF90EF90DF90CF90BF90AF909F908F90BD
:102B60007F906F905F904F903F902F900895CF93FC
:102B7000DF9300D000D0CDB7DEB79B01AC016983F5
:102B80003A834B835C830E94DB1429813A814B8119
:102B90005C810E94C71E97FF07C090958095709535
:102BA00061957F4F8F4F9F4F0F900F900F900F9019
:102BB000DF91CF9108950E94DB14862F81700895D4
:102BC00040E150E060E08BEB96E00E94DB0F61E0BB
:102BD00084E10E94831C61E085E10E94831CE1EF97
:102BE000F9E0E491F0E0EE0FFF1FE450F64F85911D
:102BF00094919093C6068093C506E2EFF9E0E491C4
:102C0000F0E0EE0FFF1FE450F64F85919491909302
:102C1000C9068093C806E2EDF9E0E491E093C706A7
:102C2000E3EDF9E0E491E093CA0610929000A1E987
:102C3000B0E01C9210928000E1E8F0E010828C91EC
:102C400088608C938C9181608C9380818860808374
:102C5000808181608083E5E6F0E08081877F8083EA
:102C6000E4E6F0E08081877F808308954115510577
:102C700091E06907710548F026E0769567955795CC
:102C800047952A95D1F793E001C091E04150510951
:102C900061097109811110C080919100887F892B91
:102CA0008093910050939900409398008091710017
:102CB000826080937100089580918100887F892BC4
:102CC00080938100509389004093880080916F0029
:102CD000826080936F0008951F93CF93DF93182F26
:102CE000EB0185E0189FF0011124E554F94F808134
:102CF00081112BC081E08083440F551F469FC00186
:102D0000479F900D569F900D112468EE73E00E942E
:102D10009F1ECB01A0E0B0E00097A105B105A9F08E
:102D200081839283A383B4839E0140E050E060E0FE
:102D300072E18AE790E00E94E91EBA01A901812FA1
:102D4000DF91CF911F910C943616DF91CF911F9197
:102D50000895811106C0909171009D7F909371003C
:102D600005C090916F009D7F90936F0090E0FC01F3
:102D7000EE0FFF1FE80FF91FE554F94FA285B38549
:102D80003C912485209523232C9325E0289FF00156
:102D9000299FF00D1124E554F94F108208951F92D8
:102DA0000F920FB60F9211242F933F934F935F937F
:102DB0006F937F938F939F93AF93BF93EF93FF9303
:102DC000E091C506F091C60680819091C7068927DB
:102DD00080838091BC069091BD06A091BE06B09103
:102DE000BF060197A109B1098093BC069093BD0667
:102DF000A093BE06B093BF06892B8A2B8B2B19F4A8
:102E000080E00E94A916FF91EF91BF91AF919F9131
:102E10008F917F916F915F914F913F912F910F9083
:102E20000FBE0F901F9018951F920F920FB60F9222
:102E300011242F933F934F935F936F937F938F93BF
:102E40009F93AF93BF93EF93FF93E091C806F091E8
:102E5000C90680819091CA06892780838091C10626
:102E60009091C206A091C306B091C4060197A10932
:102E7000B1098093C1069093C206A093C306B09394
:102E8000C406892B8A2B8B2B19F481E00E94A9168A
:102E9000FF91EF91BF91AF919F918F917F916F9132
:102EA0005F914F913F912F910F900FBE0F901F9008
:102EB000189542E251E060E08BEC96E00C94DB0F59
:102EC000CF93DF93CCECD6E08881882381F06885AE
:102ED00079858C819D810E9491119D838C836A8567
:102EE0007B858E819F810E94A1119F838E832C966A
:102EF00087E0CC3ED80741F7DF91CF910895CF937B
:102F0000DF93CFECD6E0FE01339780818823A9F0D0
:102F100038816B817C81660F672F661F770B631B7F
:102F200089819A81880F892F881F990B3296208179
:102F300031974081831B0E94D70D2C9687E0CF3EAE
:102F4000D80709F7DF91CF9108958F929F92AF92A2
:102F5000BF92CF92DF92EF92FF920F931F93CF9386
:102F6000DF93A22EB02E2CE0829F80011124045307
:102F7000194F20E86203B0011124F80175836483BE
:102F800020E84203A001112457834683CB2DD0E0D3
:102F90004E018FEF881A980A8091EC07B401680FF0
:102FA000711D87FD7A95660F771F660F771F88273B
:102FB00077FD8095982F0E94B7156B017C01809159
:102FC000EC07992787FD90950196880F991FAA27EE
:102FD00097FDA095BA2FC80ED91EEA1EFB1E0E94AF
:102FE000DB15882319F081E090E002C08FEF9FEF9E
:102FF0008C9D90018D9D300D9C9D300D1124F8010C
:10300000318720878091EC07B401680F711D87FD1F
:103010007A95660F771F660F771F882777FD809553
:10302000982F0E94B7156B017C018091EC079927BE
:1030300087FD90950196880F991FAA2797FDA09567
:10304000BA2FC80ED91EEA1EFB1E0E94DB1588236C
:1030500019F081E090E002C08FEF9FEF8C9D90010E
:103060008D9D300D9C9D300D1124F80133872287F2
:10307000A182B282FE01E45AF64FC491F801C383E3
:1030800081E080838091CB068F5F8093CB06DF91B8
:10309000CF911F910F91FF90EF90DF90CF90BF9055
:1030A000AF909F908F900895FF920F931F93CF93AF
:1030B000DF9300D0CDB7DEB710E0412F50E0209174
:1030C000EC07332727FD309542175307DCF50E94A4
:1030D000DB158823C9F064E070E080E090E00E9496
:1030E000B715F62E0E94DB15882311F040E001C0D1
:1030F0004FE360E870E080E090E049830E94B715FC
:1031000000E02F2D498119C064E070E080E090E07C
:103110000E94B715262F6FE370E080E090E02A83CD
:103120000E94B71569830E94DB152A814981882393
:1031300011F060E001C06FE700E0812F0E94A51749
:103140001F5FBBCF0F900F90DF91CF911F910F9119
:10315000FF9008950F931F93CF93DF9300D01F929A
:10316000CDB7DEB7022FECECF6E010E090819923AA
:10317000E9F01F5F3C961831C9F71F929AE89F93B8
:10318000E9EEF1E0FF93EF93E1EFF1E0FF93EF93CE
:103190004B836A8389830E946B110F900F900F906D
:1031A0000F900F900F904B816A818981242F462FB9
:1031B000682F812F0E94A5170F900F900F90DF911D
:1031C000CF911F910F910895BF92CF92DF92EF920E
:1031D000FF920F931F93CF93DF93EFECF6E0C0E0E5
:1031E000D0E0DF011397BC90BB2009F45AC00181E5
:1031F0001281000F012F001F110BE380F480EE0CF1
:10320000EF2CEE1CFF086C01C01AD10ADB01AE19CD
:10321000BF092081332727FD30952F5F3F4FCC9C7E
:10322000A001CD9C500D500D1124AA9F6001AB9FB1
:10323000D00CD00C11244C0D5D1D229FD001239F7A
:10324000B00DB00D1124A417B5075CF18CE08C9F74
:1032500060018D9FD00C1124C6018553994F6C01DC
:10326000FC012381223074F42F5F42816E2D802F68
:103270000E94AA18F60123812F5F42816E2D802FB4
:103280000E94AA188CE08C9FF0018D9FF00D1124F4
:10329000E553F94F11828091CB0681508093CB0684
:1032A00007C021963C96C831D10509F09ACFB12CC0
:1032B0008B2DDF91CF911F910F91FF90EF90DF90B9
:1032C000CF90BF900895ECEEF7E080818F5F808310
:1032D00008958091EC07089585E0089581E090912C
:1032E000CB0619160CF480E0089581E09091EC076C
:1032F00095300CF480E0089508954CE850E064EEB9
:1033000072E081E00C946C1648EE53E064EC70E0DF
:1033100081E00C946C1642E350E06EE670E080E0D1
:103320000C946C1644E650E06EE670E080E00C947D
:103330006C164DE250E060E08DEE97E00C94DB0FF0
:10334000EF92FF920F931F93CF93DF93CDEED7E0D1
:1033500000E010E0C8018351984F7C01FC0181819D
:10336000882309F458C08A819B819C01215031092E
:103370003B832A8397FF07C011828091ED0781501C
:103380008093ED0748C06E817F81660F672F661FAF
:10339000770B8C819D81880F892F881F990B0E9444
:1033A000E418882359F0F70111828091ED078150CC
:1033B0008093ED070E948B1981E01AC06E817F8196
:1033C000660F672F661F770B8C819D81880F892F71
:1033D000881F990B0E94630F882369F0F7011182FF
:1033E0008091ED0781508093ED070E9492198AE049
:1033F0000E94930E10C0688579858C819D810E9402
:1034000091119D838C836A857B858E819F810E942B
:10341000A1119F838E83055F1F4F2B9601321105EB
:1034200009F098CFDF91CF911F910F91FF90EF900E
:10343000089580910F08882309F444C080911008F2
:10344000909111089C01215031093093110820936B
:10345000100897FF03C010920F0808956091140898
:1034600070911508660F672F661F770B8091120801
:1034700090911308880F892F881F990B0E94E418D8
:10348000882321F010920F080C948B196091160874
:103490007091170880911208909113080E94911161
:1034A000909313088093120860911808709119087E
:1034B00080911408909115080E94A111909315080D
:1034C0008093140808950E94A0190C94191ACF93A0
:1034D000DF93CEEED7E08881882371F06D817E8105
:1034E000660F672F661F770B8B819C81880F892F52
:1034F000881F990B0E94150E2B9688E0CF30D807B5
:1035000051F7DF91CF91089580910F08882391F0B2
:103510006091140870911508660F672F661F770B6E
:103520008091120890911308880F892F881F990B9A
:103530000C94150E08950E94671A0C94841AE09159
:10354000ED07E33048F5E091EE07EE2359F0E09106
:10355000F907EE2351F0E0910408E1111DC0E4E009
:10356000F8E005C0EEEEF7E002C0E9EFF7E0A8E210
:10357000B0E0B283A183948383837683658350878D
:1035800047833287218781E080838091ED078F5FB9
:103590008093ED070C947D190895ECE3F0E0F0932F
:1035A0001108E09310089093130880931208709309
:1035B0001508609314085093170840931608309329
:1035C00019082093180881E080930F0808958091CE
:1035D0000F0808954BE050E060E08AE198E00E9417
:1035E000DB0F80E090E290931B0880931A0880E044
:1035F00090E190931D0880931C08089560911E0827
:1036000070911F0880911A0890911B080E949111D7
:1036100090931B0880931A086091200870912108EC
:1036200080911C0890911D080E94A11190931D0883
:1036300080931C0884E10E944F128823E1F080915E
:103640001E0890911F08009741F014F0019701C0E7
:10365000019690931F0880931E08809120089091F6
:103660002108009741F014F0019701C00196909352
:10367000210880932008089540911E0850911F084A
:10368000CA0189539F4F8F38914038F52091200807
:1036900030912108C90189539F4F8F389140E8F438
:1036A0008091220890E0880F991FFC01E158F64FA5
:1036B000E4914E0F511DE7FD5A9550931F0840931A
:1036C0001E08FC01E058F64F8491280F311D87FD3C
:1036D0003A95309321082093200808950F931F9363
:1036E0008091220890E0880F991FFC01E15AF64F63
:1036F000A4919C012F5F3F4FF901E15AF64F0491CD
:10370000FC01E158F64F8491F901E158F64F94918C
:1037100020912008309121081FE09102200D311DD9
:10372000112440911E0850911F089FE08902400D0E
:10373000511D112460911C0870911D0810E80103AF
:10374000600D711D112480911A0890911B080A2F99
:1037500010E80103800D911D11241F910F910C940D
:103760009F1ACF93DF930E942913C82F0E9426131C
:10377000D82FC5FF06C09091220891509F7090935A
:103780002208C2FF06C0909122089F5F9F7090930D
:103790002208C1FD0E943C1BD0FD0E946E1BD4FF7D
:1037A00003C081E080932308DF91CF910895609159
:1037B0001C0870911D08660F672F661F770B80919C
:1037C0001A0890911B08880F892F881F990B0E9457
:1037D000E4188093240881110C94841908950E94A0
:1037E000B11B0E94FE1A0C94D71B60911C087091AB
:1037F0001D08660F672F661F770B685080911A08A7
:1038000090911B08880F892F881F990B40912208DF
:1038100088500C94A70D60E770E080E090E00E9473
:10382000B715685F7F4F8F4F9F4F27E0660F771F59
:10383000881F991F2A95D1F770931B0860931A0867
:1038400060E370E080E090E00E94B715685F7F4F12
:103850008F4F9F4F37E0660F771F881F991F3A954C
:10386000D1F770931D0860931C0810921F081092E6
:103870001E08109221081092200810922308089523
:1038800080912308089580912408089590E0FC0118
:103890003197EF30F105B0F5EA5AFF4F0C94081F4D
:1038A000809180008F7703C0809180008F7D80930E
:1038B0008000089580918000877FF9CF84B58F774D
:1038C00002C084B58F7D84BD0895809190008F776C
:1038D00007C0809190008F7D03C080919000877F0A
:1038E0008093900008958091C0008F7703C08091ED
:1038F000C0008F7D8093C00008958091C200877FB3
:103900008093C2000895CF93DF9390E0FC01E254CE
:10391000F64F2491FC01E352F64F8491882349F13C
:1039200090E0880F991FFC01E65FF54FA591B491D7
:103930008450964FFC01C591D4919FB7611108C086
:10394000F8948C91209582238C93888182230AC0DD
:10395000623051F4F8948C91322F309583238C93FC
:103960008881822B888304C0F8948C91822B8C935D
:103970009FBFDF91CF9108950F931F93CF93DF9354
:103980001F92CDB7DEB7282F30E0F901E156F64F90
:103990008491F901E254F64F1491F901E352F64F84
:1039A00004910023C9F0882321F069830E94461CFA
:1039B0006981E02FF0E0EE0FFF1FE450F64FA59174
:1039C000B4919FB7F8948C91611103C01095812335
:1039D00001C0812B8C939FBF0F90DF91CF911F91DE
:1039E0000F910895CF93CFB7F89480912508811156
:1039F00027C0EEEEF9E08491EFECF9E09491E82F26
:103A0000F0E0EE0FFF1FE65FF54FA591B4918C91AA
:103A1000892321F461E081E10E94BC1C61E081E125
:103A20000E94831C8CB580618CBD8CB580648CBD7C
:103A300061E08FE00E94831C61E080E10E94831CB2
:103A4000809125088F5F80932508CFBFCF9108957F
:103A50004F925F926F927F928F929F92AF92BF929E
:103A6000CF92DF92EF92FF920F931F93FC01848419
:103A70009584A684B784048115812681378140848A
:103A8000518462847384B301A201402751276227C5
:103A90007327C080D180E280F380E894F7F84C254A
:103AA0005D256E257F256A017B01CC0CDD1CEE1C9B
:103AB000FF1CC426D526E626F726B501A401769577
:103AC000679557954795482559256A257B254C25A7
:103AD0005D256E257F2500831183228333834487F0
:103AE0005587668777874A015B0181E088229924A0
:103AF000AA24BB24B094A09490948094811C911C1F
:103B0000A11CB11C0089118922893389082119213E
:103B10002A213B21042515252625372504831583D5
:103B2000268337832AE0440F551F661F771F2A9587
:103B3000D1F74C255D256E257F25048915892689B9
:103B40003789082119212A213B2140275127622743
:103B5000732740875187628773871F910F91FF906A
:103B6000EF90DF90CF90BF90AF909F908F907F901D
:103B70006F905F904F900895FC0140815181628168
:103B800073817F77452B462B472BC1F544815581A7
:103B900066817781452B462B472B81F540855185E2
:103BA00062857385452B462B472B41F5448555850A
:103BB00066857785452B462B472B01F544E550E07C
:103BC00060E070E0408351836283738349E450E096
:103BD00060E070E044835583668377834EE450E071
:103BE00060E070E0408751876287738749E550E065
:103BF00060E070E044875587668777870895CF92A5
:103C0000DF92EF92FF920F931F93CF93DF93EC011C
:103C1000488359836A837B8388899989AA89BB8968
:103C20008C839D83AE83BF838C899D89AE89BF8938
:103C300088879987AA87BB87888D998DAA8DBB8D28
:103C40008C879D87AE87BF87C12CD12C7601C3940A
:103C5000F601E370FF27EE0FFF1FEE0FFF1FEC0FC3
:103C6000FD1FD6011197A370BB27AA0FBB1FAA0F78
:103C7000BB1FAC0FBD1F8D919D910D90BC91A02DD0
:103C80009C01AD016EE156954795379527956A954C
:103C9000D1F7282739274A275B2765E679E887E0A7
:103CA0009CE60E94831E6C0D7D1D8E1D9F1D008154
:103CB000118122813381062717272827392700837E
:103CC0001183228333838FEFC81AD80AE80AF80ACF
:103CD00088E0C816D104E104F10409F0B9CFCE019F
:103CE0000E94BC1D08E010E0CE010E94281D01507A
:103CF0001109D1F7DF91CF911F910F91FF90EF90B4
:103D0000DF90CF900895DB018F939F930E940E1F49
:103D1000BF91AF91A29F800D911DA39F900DB29F67
:103D2000900D11240895991B79E004C0991F9617EE
:103D300008F0961B881F7A95C9F780950895AA1BED
:103D4000BB1B51E107C0AA1FBB1FA617B70710F086
:103D5000A61BB70B881F991F5A95A9F780959095B8
:103D6000BC01CD01089597FB072E16F4009407D0EF
:103D700077FD09D00E949F1E07FC05D03EF4909568
:103D800081959F4F0895709561957F4F0895A1E2A9
:103D90001A2EAA1BBB1BFD010DC0AA1FBB1FEE1FC5
:103DA000FF1FA217B307E407F50720F0A21BB30B10
:103DB000E40BF50B661F771F881F991F1A9469F78C
:103DC00060957095809590959B01AC01BD01CF01E8
:103DD0000895052E97FB1EF400940E94001F57FDC6
:103DE00007D00E94C71E07FC03D04EF40C94001F9E
:103DF00050954095309521953F4F4F4F5F4F089517
:103E000090958095709561957F4F8F4F9F4F089546
:103E1000EE0FFF1F0590F491E02D09940E94191FE9
:103E2000A59F900DB49F900DA49F800D911D11240E
:103E30000895A29FB001B39FC001A39F700D811D83
:103E40001124911DB29F700D811D1124911D0895A3
:103E5000F999FECF92BD81BDF89A992780B5089552
:103E6000262FF999FECF1FBA92BD81BD20BD0FB696
:103E7000F894FA9AF99A0FBE01960895F894FFCF34
:103E800000C18081000000FFFFFFFF00E100000093
:103E90000000002D0423041904F703ED03E303C11C
:103EA00003B703AD038B038103770355033303117A
:103EB00003EF02CD02AB0289026702450223020131
:103EC00002DF01BD019B017901570100000000A63E
:103ED0000AED0AD00AE00ABC0ACD0A57415645202D
:103EE00025642F256420200042455354202564007A
:103EF00047414D45204F5645520047414D452043CF
:103F00004C4541520067616D652E637070004761DA
:103F10006D652E6163740025732825642925780A50
:103F2000007265732E637070002573282564296EF6
:103F3000756D203C2031360A0025732825642974CC
:103F4000797065203C20342026262073697A65200C
:103F50003C20330A002533640075666F2E63707051
:103F60000055666F2E616374006173742E63707008
:103F70000025732825642969203C204153545F4D56
:083F800041585F434E540A0052
:00000001FF
